:020000040008F2
:10000000902D00201560080033600800975208000A
:1000100053350800F35A08000F5B08000000000089
:10002000000000000000000000000000775E0800F3
:100030009B5E08000000000035600800E3520800E5
:1000400037600800396008003B6008003D60080028
:100050003F600800416008004360080045600800F8
:10006000F52608004760080013530800675308008E
:100070004960080011270800AF1B0800D51B0800C5
:100080004B6008004D600800E53608004F6008002E
:100090005160080053600800556008005760080070
:1000A000596008005B6008005D6008005F60080040
:1000B000616008006360080031600800F8B5002442
:1000C000DFF8100CDFF860180860DFF860180860CF
:1000D000DFF8041C08600020DFF8001C0870DFF85F
:1000E0005058286800905FF40016DFF84808066052
:1000F000DFF8EC7B5FF4000038605FF08070386000
:100100006421684600F0D0FF0028F9D03E602868DE
:1001100000904FF47A71684600F0C6FF0028F8D0CE
:1001200028680090DFF810080068C0070AD4200093
:10013000C0B2002806D14FF47A71684600F0B4FFCF
:100140000400EFE72000C0B2002811D100F024F82D
:1001500000F0FEFBDFF8EC5B280000F0D1FB28711B
:10016000280000F08DFA4FF47A713E2000F031FB48
:10017000F1BD0020C82801D2401CFBE75FF0807071
:10018000DFF8B01708600021142901D2491CFBE7F1
:10019000DFF84C1B086070472DE9F84F8CB007A8BA
:1001A000DFF89817112200F0B1FF01A8DFF89017CF
:1001B000182200F0BBFF00208DF80000DFF8784720
:1001C0002068C00740F1CC80DFF878A7DAF800702B
:1001D000DFF8745700202860DFF870B7DBF8000004
:1001E000C00007D5DBF8000030F08050CBF80000ED
:1001F0007F1E0DE0FFF7BDFF2068400708D4286888
:1002000042F21071884203D22868401C2860F3E74C
:10021000286842F21171884205D300F0A4F807A8BB
:1002200000F0E4FF9CE0206830F004002060DFF87C
:10023000FC6630680078A42866D1DBF8000050F036
:100240008060CBF80000FFF794FF2068C00708D556
:10025000286842F21071884203D22868401C286046
:10026000F3E7DBF8000030F08060CBF80000206896
:1002700030F004002060286842F2107188423AD2BF
:10028000DAF80000C71B30680078804600F07DF87F
:1002900030680078801C81464846C0B2801C874286
:1002A00005D0DBF8000050F00100CBF8000030680A
:1002B000007890EA080800F068F8B9F101094846AA
:1002C000C0B20028F3D1404631680978C0B28842F4
:1002D0000AD1DFF8080A0178491C0170DFF8680AC2
:1002E0000168491C016017E03068DFF8EC1908600C
:1002F00000F059F810E0DFF8540A0168491C016069
:1003000001208DF8000007E0DFF8440A0168491C6D
:10031000016001208DF800009DF8000000281DD02C
:1003200001A800F063FF2068C0070AD5286842F2E0
:100330001071884205D22868401C2860FFF719FF19
:10034000F1E7DFF8E405016831600068DFF888193B
:100350000860206830F00600206001E000F015F829
:100360000DB0BDE8F08F72B6DFF86809DFF8B81598
:100370000860DFF8B8150860DFF85C190860002035
:10038000DFF85819087062B67047DFF8A0050168F9
:10039000491C0160DFF83C19026811F580739A422C
:1003A00000D101607047DFF830090168491C016025
:1003B000DFF82019026811F580739A4200D10160BC
:1003C00070472DE9F84F04000D0000265FF0000B88
:1003D0004FF6FF79ADF80290FF278DF800705FF0BF
:1003E000FF3894F800A0A0788DF801005046C0B204
:1003F000092801D100204EE05046C0B2122803DA8D
:100400005046C0B2092805DADFF8DC0A00F0EEFE3B
:10041000002040E0E07A0600012031061ED5594652
:10042000C9B22144097B1BF1010B5A46D2B22244C6
:10043000127B51EA0221ADF802101BF1010B594663
:10044000C9B22144097B8DF800101BF1010B5946FC
:10045000C9B22144097B0F001BF1010B71060BD5BA
:100460001BF1010B5946C9B2214491F90C10884681
:100470001BF1010B1BF1010BB1060CD55946C9B29A
:100480002144097B1BF1010B5A46D2B22244127B54
:1004900051EA022189466E709DF801102970BDF85D
:1004A000021069809DF8001029716F7185F806802F
:1004B000C0B2BDE8F28FF8B5DFF8080A0068C001E5
:1004C00009D5DFF8040A00F091FEDFF8000ADFF832
:1004D000901A0860CDE05FF40010DFF8101A086091
:1004E000DFF80C0A00F082FE0020DFF8781A0860BE
:1004F0000020DFF8741A086000200100C9B2082942
:1005000051DA1421DFF8642A0300DBB24B43D054E4
:10051000FF230600F6B24E43164473700600F6B28F
:100520004E431644B3700600F6B24E431644F372BF
:100530000600F6B24E43164433730600F6B24E433D
:10054000164473730600F6B24E431644B3730600A6
:10055000F6B24E431644F3730600F6B24E43164409
:1005600033740600F6B24E43164473740600F6B2B6
:100570004E431644B3740300DBB24B4313440026CE
:10058000DE7400231E00F6B2082E0ADA0600F6B268
:100590004E4316441F00FFB23E440027F7705B1C19
:1005A000F0E7401CA9E7DFF8C80904210170DFF873
:1005B000C46946605FF480018160012101730321F9
:1005C00041730FF2F52101610FF201314161DFF852
:1005D00004178161DFF85013C1614FF48071018409
:1005E00001F0CAF9DFF8901908600020DFF848131D
:1005F0000860FFF763FDDFF884090078C00619D5AD
:10060000DFF87C0900F0F2FDDFF8780900F0EEFD7C
:10061000DFF8740900F0EAFD00F0FAFDDFF82C03C2
:10062000016831F4803101600FF60D00DFF83019F8
:1006300008601EE0DFF8540900F0D8FD5FF030706C
:1006400004005FF0F0700500DFF844090460DFF893
:1006500044090460DFF8400905603560DFF83C09B3
:100660000460DFF83C0905600FF6C110DFF8F018F0
:100670000860F1BD80B5DFF8E8080068804701BD7B
:100680002DE9F84799B00400DFF81809056810A8AB
:10069000DFF81419212200F039FD0AA8DFF80C193F
:1006A000152200F033FD05A8DFF80419122200F02E
:1006B0002DFD6846DFF8FC18112200F027FDDFF859
:1006C0008C62306810F0406F04D010A800F08EFDEE
:1006D00000207BE0DFF87072002038605FF40008D3
:1006E0009448C0F80080DFF85092D9F80000C007A5
:1006F00008D4386842F21071884203D23868401C2E
:100700003860F0E742F2117A3868504508D3DFF8D4
:10071000D005C0F800800AA800F068FD002055E070
:10072000FFF727FDD9F80000400708D4386842F2E7
:100730001071884203D23868401C3860F2E7DFF855
:10074000A005C0F800803868504504D30AA800F01E
:100750004DFD00203AE07548006807783800C0B2C7
:10076000A42805D1306850F08050306000202DE082
:10077000FFF70BFEFFF717FED9F8000030F004007A
:10078000C9F800003800C0B2A5281BD1306850F06D
:10079000006030602678F61CDFF81C8822003100EB
:1007A000DFF8D407006801F07CF9C8F80000D8F839
:1007B0000000002801D0012008E005A800F016FD87
:1007C000002003E0684600F011FD00201AB0BDE8EB
:1007D000F0872DE9F84388B004000D0000260127BA
:1007E000DFF8C0070068009001A8DFF8D0171A22D0
:1007F00000F08CFCDFF83881D8F800000090DFF8BA
:100800003891D9F80000C0070AD53000C0B20028DE
:1008100006D14FF47A71684600F046FC0600EEE718
:100820003000C0B200281CD14848016831F0006196
:10083000016000F0F2FA0020DFF87C170860D8F8B9
:1008400000000090D9F80000C0070AD43000C0B200
:10085000002806D14FF47A71684600F025FC0600A6
:10086000F0E73000C0B2002818D1FFF795FCDFF8A0
:100870006C040078002811D0DFF85C0401688978E6
:1008800040290BD1016809792200D2B2914205D1E9
:1008900000684079002801D10020070000F058F8D6
:1008A0003000C0B2002802D001A800F09FFC380040
:1008B000C0B209B0BDE8F08380B5DFF80407016875
:1008C000491C0160FFF755FC01BD000080B51D48C3
:1008D0000168491C0160DFF87C040168491C016063
:1008E000DFF8F013026811F580739A4200D10160BD
:1008F000DFF8D0060068400101D5FFF73AFC01BDE2
:1009000030B4020013789B1CA520002421001D0098
:10091000C9B2EDB2A94204D211784840521C641CFD
:10092000F4E7C0B230BC7047581C00205C1C0020AB
:10093000D81C0020340E0E40041D00204C5F08001F
:10094000045F0800441C0020381C0020281C0020E4
:10095000F0B587B0DFF884130878002801D10120B2
:10096000B6E1DFF868060268521C02600878401E93
:100970000870FFF718FDDFF860532868047820003E
:10098000C0B2122801DB0120A2E100263000C0B273
:100990002100C9B2C91C884209DA28680078694672
:1009A0003200D2B28854FFF7FEFC761CEEE76E46AA
:1009B000B57870783E2800F0698140280CD04E2828
:1009C00000F04B814F2800F04881522800F05D81F3
:1009D0006F2800F0718175E1F078012800F0BC808B
:1009E000DFF8EC050570F178417031798170F078AD
:1009F000412855D042284BD04B2807D04C282CD02A
:100A00005B2874D1DFF8CC0500F0F0FBDFF8C805F7
:100A100015F13001017300F0E9FB307900281BD19A
:100A20001420DFF848152A00D2B242430A442B00B2
:100A3000DBB243430B44DB7C53F00403D3742A0042
:100A4000D2B242430A442B00DBB200FB03F008445D
:100A5000C07C10F0FD00D0746BE0DFF88005B17849
:100A60003031017300F0C2FB307900280FD114201F
:100A7000DFF8F8142A00D2B242430A442B00DBB25A
:100A800000FB03F00844C07C10F0F300D07450E089
:100A9000DFF84C05B1783031017300F0A7FB48E076
:100AA000DFF84005B1783031017300F09FFB3079F9
:100AB00000281BD11420DFF8B4142A00D2B242431C
:100AC0000A442B00DBB243430B44DB7C53F00803A6
:100AD000D3742A00D2B242430A442B00DBB200FB9B
:100AE00003F00844C07C10F0FB00D07421E0DFF874
:100AF000F874B07830303873F078C0B2000900F084
:100B0000EBFA3876F07810F00F0000F0E5FA78761E
:100B10003079C0B2000900F0DFFA87F8240030799C
:100B200010F00F0000F0D8FA87F82500380000F028
:100B30005DFB3079002804D1DFF8440400F056FB57
:100B40008AE0DFF8A80400F051FBDFF878040168C0
:100B500051F0020101607FE0307900280ED00128B9
:100B600054D002280ED0032829D0052836D00628D4
:100B700048D007284ED008281DD060E0002000F0A3
:100B8000B1F869E0DFF868040178491C0170007869
:100B900000280CD1DFF85C040178491C0170007852
:100BA000002804D1DFF850040178491C0170684620
:100BB00000F098F850E0684600F094F84CE0DFF858
:100BC000AC132A00D2B21420424301EB0200407859
:100BD000102802D1684600F085F83DE01420DFF8C7
:100BE0008C132A00D2B242430A442B00DBB200FB32
:100BF00003F00844C07C50F01000D074684600F048
:100C000071F829E0684600F06DF825E0684600F0CC
:100C100069F821E0DFF8E40300F0E8FA1420DFF8D7
:100C20004C132A00D2B242430A442B00DBB200FB31
:100C300003F00844C07C10F0F300D0740CE030796D
:100C400000F0F4FADFF8B80300F0D0FADFF874032C
:100C5000016851F00401016039E005A96846FFF719
:100C6000B0FB05AA0DF10301012000F075F8BF49A2
:100C70002A00D2B21420424301EB0200407800283F
:100C800002D1002000F02EF821E020E00020010039
:100C9000C9B20A290ADA69460200D2B21144897837
:100CA000B94A0300DBB2D154401CF0E7B3480168F5
:100CB00051F0100101600AE0C248016851F480312E
:100CC000016004E0BF48016851F0080101600020A4
:100CD00007B0F0BDF4130020601C0020761D00203A
:100CE000300E0E401FB50400FF2001008DF80810E3
:100CF00002A9A2784A70E2788A702279CA700871D3
:100D0000BD4A12784A71BB4A12788A71B84A127881
:100D10008DF80F2049788DF80010ADF80200010021
:100D20008DF8041001008DF805105FF0FF318DF88B
:100D300006108DF801006A4602A9022000F00CF8A6
:100D40001FBD00000C010020701C0020481C00206A
:100D50004C1C0020581C00202DE9F0438BB00500EE
:100D60000E0017005FF000096846A6492B2200F02C
:100D7000CDF91C2001F092F90400002C04D1684642
:100D800000F034FA002045E000200100C9B2082933
:100D900008DA0100C9B2715C0200D2B2224491713A
:100DA000401CF2E798480068206025713878A073ED
:100DB000788820823879A0747879E0747878E07344
:100DC000B87920750020A06166490868002805D11F
:100DD0000C607D480168491C01601AE00868804683
:100DE000D8F81800002804D0D8F8188019F10109A3
:100DF000F6E74846C0B2202806D2C8F81840724824
:100E00000168491C016004E0684600F0EFF9002029
:100E100000E001200BB0BDE8F08310B5524908682E
:100E2000002807D00868040008688069086020006E
:100E300001F0D4F910BD0000F8B501240025614E81
:100E4000306800041BD0714800F0D0F9002738004A
:100E5000C0B204280FDA3068204208D06C492A005A
:100E6000D2B21420424301EB020000F0BFF964004B
:100E70006D1C7F1CEBE73068000C00043060FFF74E
:100E800067FD64480068C00704D50FF24500344987
:100E9000086015E048480068002811D13249086808
:100EA00000280DD00868001DFFF7EAFB002807D0D6
:100EB00055480068584908600FF239002849086011
:100EC000F1BD0000C01C0020CC0000202D10080047
:100ED00080B552480168491C0160FFF75DF9504830
:100EE0001F49086001BD0000285C0800100E0E407C
:100EF0009400002038B5304D286801F071F90400E5
:100F00002000C0B2001F012829D8FFF786FF00206B
:100F100028602C48016831F0006101603D4D28686F
:100F2000C00709D53C48016842F21072914203D2D1
:100F30000168491C0160F1E73A48006842F211710A
:100F4000884208D3384800F051F92868C00702D514
:100F5000FFF70FF9F9E7324801490860FFE731BDB3
:100F6000341C0020301C0020681C0020F4160020D7
:100F7000B41A0020000E0E40541C0020C41C002097
:100F800000000020C45F0800F41B0020AC0000201B
:100F9000040C0E40000C0E40040E0E40140C0E40CB
:100FA000140E0E40DC1C00204C5C08001C5F080086
:100FB000605F0800745F0800501C0020B05E0800ED
:100FC000401C0020281C0020641C0020741C0020F1
:100FD0002C1C0020E45F0800800000206800002036
:100FE0001000002028000020400000200800002001
:100FF000791D0020781D0020771D0020885F0800E3
:10100000F85D0800A85B0800D81C0020140100202F
:1010100024010020041D00203C1C00206C1C00202A
:10102000390E0800381C0020740100207047F0B40D
:101030000246106895681318506803EB5004C00707
:101040001DD54D441BE013F8017B05F8017B491EBB
:10105000F9D1A0B1B60813F8011B06F00306032E60
:1010600008BF13F8016B01EB06214942801C29449B
:1010700005D011F8016B05F8016B401EF9D1A342B0
:101080000ED013F8016B16F0030104BF13F8011B17
:10109000C91C30090F28DAD113F8010B0F30D6E73D
:1010A000F0BC02F10C00704710B40200164803684F
:1010B0001468A34203D300681368C31A05E05FF005
:1010C000FF341368E31A0068C3188B4201D2002072
:1010D00000E0012010BC70470100FF200A00D2B2DE
:1010E0000A2A03DA11F1300210000AE00A00D2B233
:1010F0000A2A06DB0A00D2B2102A02DA11F15702DC
:101100001000C0B270470000D81C002062B38B07EB
:1011100008D0521E11F8013B00F8013B00F024807A
:101120008B07F6D1830740F0208000BF103A07D329
:1011300030B4B1E83810103AA0E83810F9D230BC19
:10114000530724BFB1E80810A0E8081044BF51F8C5
:10115000043B40F8043BD20724BF31F8022B20F8AF
:10116000022B44BF0B7803707047121F17D35B002C
:1011700009D151F8043B20F8023B1B0C121F20F848
:10118000023BF6D20BE051F8043B00F8013B1B0A8E
:1011900020F8023B1B0C121F00F8013BF3D238BFB2
:1011A000121D521E24BF11F8013B00F8013BF8D874
:1011B000704730B4002513E050F8042BD30744BF28
:1011C000A9F101039A18091F042942F8045BFAD215
:1011D00013468C0744BF15809B1CC90748BF1D7070
:1011E00050F8041B0029E7D130BC704770B50400EB
:1011F000250000262878002802D0761C6D1CF9E70F
:1012000022003100DFF8B006006801F0F7F970BD88
:1012100080B5DFF8A8060088ADF800006A46022114
:10122000DFF89406006801F0E9F901BD2DE9FE43FD
:10123000070000250026DFF8888600210800C0B2DC
:101240000A281BDA6846B7FBF8F230320B00DBB233
:10125000C2540A00D2B2805C302801D001200500BF
:101260002800C0B2002800D0761CB7FBF8F008FBBD
:1012700010770A20B8FBF0F8491CDFE72800C0B25D
:10128000002801D1012006003000C0B200F006FFA6
:101290000400002C08D10220DFF8281608700FF295
:1012A000E550DFF8241608605FF0090931000800F6
:1012B000C0B200280BD0684610F809000A00D2B26C
:1012C000224402F8010CB9F10109491EEFE722009E
:1012D0003100C9B2DFF8E005006801F08FF92000A5
:1012E00000F07CFFBDE8F78378B5ABB06846DFF867
:1012F000E8151122FFF70AFF19A8DFF8E0154822C8
:10130000FFF714FF0124012505A8DFF8D4155022AA
:10131000FFF70CFF19A8FFF769FF00263000C0B2E5
:10132000082814DADFF8BC05006804420CD100205C
:10133000050005A93200D2B20A20424301EB0200A7
:10134000FFF754FFFFF764FF6400761CE6E7280010
:10135000C0B2002802D06846FFF748FFFFF758FFE9
:101360002CB070BD1FB50020010089B2802907D2C2
:101370000021DFF8742503009BB2D154401CF3E731
:101380000020DFF84815087000200100C9B280294C
:1013900007DA0021DFF838250300DBB2D154401C06
:1013A000F3E7DFF84405DFF844150860DFF840157F
:1013B0000860DFF84025DFF840351A6002228DF81A
:1013C0000020019002918020ADF802000FF24D0044
:1013D0000390DFF8E444684601F070F8206020686C
:1013E000002805D10FF29D40DFF8DC1408600EE004
:1013F000DFF80805FFF7FAFEDFF8E804016851F0AE
:10140000040101600FF27920DFF8BC1408601FBDF1
:1014100080B5DFF8B4040068804701BDDFF8D00470
:101420000168491C0160DFF8C014026811F18003F3
:101430009A4200D10160704718B591B00AA8DFF850
:10144000C0141922FFF762FE3A208DF80200202016
:101450008DF803000A208DF824000D208DF825005A
:1014600000208DF826000AA8FFF7C0FE0024200007
:10147000C0B2082833DA2000C0B20A2808DB2000F6
:10148000C0B20A2190FBF1F030308DF8000002E08C
:1014900030208DF800002000C0B20A2190FBF1F24C
:1014A00001FB120030308DF8010000200100C9B2AC
:1014B00020290FDADFF84C142200D2B251F8321092
:1014C0000200D2B2895C6A460300DBB21A44117191
:1014D000401CEBE76846FFF789FE641CC7E7FFF78F
:1014E00097FE12B010BD1FB56846DFF81C1491E8D6
:1014F0001C0080E81C006846FFF778FE1FBD1FB582
:101500006846DFF8081491E81C0080E81C00684673
:10151000FFF76CFEDFF8BC030178C90708D5016846
:10152000490849000160DFF8E803FFF75FFE2BE0A0
:10153000016851F001010160DFF8D803FFF756FEA2
:10154000082001F0EBF9092001F0E8F90A2001F088
:10155000E5F90B2001F0E2F9002001F0DFF90120AC
:1015600001F0DCF9022001F0D9F9032001F0D6F9ED
:10157000042001F0D3F9052001F0D0F9062001F094
:10158000CDF9072001F0CAF91FBD10B504002000F5
:10159000C0B242280BD1082001F012FA092001F054
:1015A0000FFA0A2001F00CFA0B2001F009FA2000D2
:1015B000C0B252280BD1002001F002FA012001F044
:1015C000FFF9022001F0FCF9032001F0F9F92000F5
:1015D000C0B247280BD1042001F0F2F9052001F038
:1015E000EFF9062001F0ECF9072001F0E9F910BD50
:1015F00000B589B06846DFF820132322FFF786FD87
:101600006846FFF7F3FDB3480178890707D50168FD
:1016100031F002010160BE48FFF7E8FD06E0016815
:1016200051F002010160BB48FFF7E0FD09B000BDC9
:1016300080B592B00BA8B9491B22FFF767FD684639
:10164000B7492922FFF762FD0BA8FFF7CFFDA1489C
:101650000168C90307D5016831F480310160AC48E5
:10166000FFF7C4FD09E0016851F480310160A94829
:10167000FFF7BCFD6846FFF7B9FD13B000BD0000E1
:10168000F8B50025994E306899490968884200F0FC
:1016900087802800C0B2002840F08280306800783F
:1016A00004002000C0B2082802D00D282AD033E060
:1016B0008848007840070AD58448017880291DDAD7
:1016C000834902788C540178491C017016E07F49E7
:1016D0000878002806D00878401E087000207C4A50
:1016E0000978505484480168824A914206D00168C2
:1016F000491E01608B480188491E01808A48FFF716
:1017000075FD39E073480078400705D401200500D5
:101710000FF29D006C4908606C480178802905DA59
:101720006B4902788C540178491C01702100C9B2C0
:101730006148006800F04BFF6648007840071BD402
:101740006D4801680C700168491C016075490A8880
:10175000521C0A80674A036812F14007BB420BD350
:101760002300DBB20D2B07D00260002008806F48F9
:10177000FFF73CFD6E49086056480078C00703D566
:101780002000C0B2FFF701FF3068401C30605648AF
:10179000316810F180029142FFF474AF306071E75C
:1017A00063490868002802D0086800F019FDF1BDFF
:1017B000F8B5012500274F4E3800C0B2305C5D49B6
:1017C0003A00D2B2895C884201D0002005007F1C1B
:1017D0002800C0B2002803D03800C0B20428EADBD9
:1017E0002800C0B200282FD0002005003800C0B269
:1017F0003056303804007F1C200040B2002823D42B
:10180000200040B20A281FDA4B480A2101FB04F1EC
:1018100001703900C9B2715630390C007F1C2100AB
:1018200049B2002910D4210049B20A290CDA017802
:10183000611801700078082806DA3800C0B2305C00
:101840000D2801D1012005002800C0B2002804D0D5
:101850000FF219001C49086005E03848FFF7C6FC84
:1018600037481949086024480660F1BD80B53448FE
:101870001549086023483049097800EBC1004068E9
:10188000804701BD80B51348016851F000410160F7
:101890002C48FFF7ABFC0B480078FFF7C7FCFFF7BD
:1018A000B7FC00201F4908801248134908602448EB
:1018B0000549086001BD00008C1C0020662C080052
:1018C00000CA9A3B7D1D0020881C00207C1D002042
:1018D00024180020841C0020B05F0800605B080012
:1018E000105B0800C41C0020A4180020981C0020D5
:1018F000941C0020A41900209C1C0020EC01002056
:10190000CC5E0800AC010020FC5F08000860080005
:10191000E8030020E0030020B45D0800E85E080052
:10192000D45B0800741D0020300200203402002027
:10193000901C0020540200207E1D00205C0200202C
:101940008116080070020020012210F01F018A4059
:10195000DFF8D41603005BB25B0941F8232070471F
:10196000012210F01F018A40DFF8C01603005BB2AD
:101970005B0941F8232070472DE9F04704002078E7
:10198000022804D027D3042819D00CD323E0DFF891
:10199000A0565026DFF89C765FF008087FF0080913
:1019A0005FF01A0A19E0DFF890566026DFF88C76AF
:1019B0005FF000085FF0FF395FF0300A0DE0DFF8FC
:1019C00080565026DFF87C765FF400287FF40029EB
:1019D0005FF0000A01E0002061E02869C00201D543
:1019E00000205CE0DFF860160A68012395F9280002
:1019F00083401A430A6060686860A068A860207B22
:101A00002873607B6873206968616069A861A06958
:101A1000E861E0692862208CA884286950F480106D
:101A2000286128680660286847602868C0F8088030
:101A30002868C0F80C902868C0F820A0687B0228AD
:101A40001BD1A0692968C1F80001A069401C296860
:101A5000C1F8100101202968C1F80401012029689A
:101A6000C1F814010020286240F201102968C1F871
:101A700020015FF4002029688860687B032803D177
:101A8000DFF8C8052968886095F9280040B2FFF79B
:101A900067FF95F9280040B2FFF756FF2800BDE820
:101AA000F087F8B505000E0017003A00310015F177
:101AB0002C0000F0B8FB0400002C01D1002007E04E
:101AC000DFF890050068002801D500F052F82000EA
:101AD000F2BD80B5DFF85805DFF87C150160002104
:101AE00041600021C1620021C16100218184002187
:101AF0000162002101610D2180F82810DFF83815FE
:101B0000DFF858250A6000224A600022CA620022DB
:101B1000CA6100228A8400220A6200220A610E221F
:101B200081F82820DFF81815DFF834250A60002234
:101B30004A600022CA620022CA6100228A8400220E
:101B40000A6200220A610F2281F82820DFF81415AA
:101B500008600FF24130DFF8F8140860DFF808057C
:101B6000FFF744FB01BD80B5DFF8E404006880475F
:101B700001BD10B5DFF8F444206850F0010020608A
:101B8000DFF8AC04DFF8DC1408602078C0070DD55E
:101B9000DFF8BC0400688047DFF8D404DFF8D41411
:101BA000096801600121FFF77FFAEEE710BD80B5FB
:101BB000DFF88404DFF8C0140860DFF8C404DFF83D
:101BC000BC140860DFF8BC040168491C016000F027
:101BD00014F801BD80B5DFF86804DFF89C140860D4
:101BE000DFF8A404DFF894140860DFF8A0040168AB
:101BF000491C016000F001F801BDF8B5DFF8786418
:101C0000306800684769306800680069000328D5BB
:101C1000380326D530684068C06B3168896808424F
:101C20000ED1DFF858040168096851F0010102681B
:101C300011600168096831F006010068016010E078
:101C4000DFF8380401680968490849000068016044
:101C50003068407B022804D1012031680968C1F84E
:101C6000040130680068006980054CD5B8054AD584
:101C70003068006B401E3168086330680068806916
:101C800004003068006B002819D03068406B401C9D
:101C9000316848633068406B007804003068007B2E
:101CA000012803D194FAA4F0000E04002000C0B271
:101CB00031680968C86130684069804723E04FF4A3
:101CC000007031680968C8603068006930F400103D
:101CD0003168086104213068C06A006800F08EFB3A
:101CE00030682C3000F01DFB0120316809688860E5
:101CF000DFF888030168096851F00201006801609B
:101D0000306840698047306800680069C00729D59D
:101D1000306800684069C00724D530680068806971
:101D200000F0FF0004003068007B012803D194FA22
:101D3000A4F0000E04002000C0B2FF2804D1DFF898
:101D400050030168491C01603068006A0068047033
:101D5000CA480168096851F00401006801603068F0
:101D600080698047306800680069000757D53807E8
:101D700055D53068407B002803D03068407B01286F
:101D800027D100203168C8843068006930F48000B1
:101D9000316808613068006950F4000031680861FA
:101DA000BC480168491C0160AE480068407B0028BF
:101DB00004D13068806831684968086340F20220C5
:101DC00031680968C1F82001082031680968C860D5
:101DD00025E0AA480168096851F004010068016023
:101DE00030680068D0F81001401C31680968C1F8FB
:101DF000100130680068D0F800013168C9693268A4
:101E0000928C1144884205D13068C06931680968F4
:101E1000C1F80001012031680968C1F81401306877
:101E200000680069C00634D5F80632D50421306850
:101E3000C06A006800F0E2FA30682C3000F071FAF5
:101E40003068006930F40010316808614FF40070A8
:101E500031680968C1F82001102031680968C8603C
:101E600000200500306800684069800503D4642DB7
:101E700001D26D1CF6E73068407B002809D1794813
:101E80000068407B002804D1306880683168496868
:101E90000863F1BD2DE9F041724D2868C06A002841
:101EA00004D12868C08C002800F09F802868006951
:101EB00010F4C00F40F099802868407B002804D1BE
:101EC000286880682968496848632868C08C0028A9
:101ED00033D02868006950F48000296808612868B8
:101EE000868C00272868D0F81C803A0031004046D4
:101EF00000F086FE2868C06929680968C1F80001F9
:101F00002868C06929680968C1F808012868C08C78
:101F100029680968C1F804012868C08C2968096823
:101F2000C1F80C01082029680968886040F2011096
:101F300029680968C1F8200157E002212868C06AB1
:101F4000006800F05BFA2868006950F40010296806
:101F500008612868407B03282FD12868C06A406840
:101F6000296808632868C06A0830296848632868B7
:101F7000406B007804002868007B012803D194FAA4
:101F8000A4F0000E040008202968096808604020B9
:101F90002968096808602000C0B229680968C8611A
:101FA000012029680968C8604FF400702968096831
:101FB000886028684069804717E02868C06A083050
:101FC00029680968C1F808012868C06A406829685A
:101FD0000968C1F80C0110202968096888604FF46D
:101FE000807029680968C1F82001286890F82800E5
:101FF0000D2804D011D30F2807D003D30DE00E48CD
:1020000028600FE00E4828600CE009482860174857
:10201000016849084900016004E01F48FFF7E6F83D
:1020200003482860BDE8F08100E100E080E200E0C4
:10203000E4190020C00840001C1A0020CE184500FA
:10204000541A0020FF18410010040E40010008003F
:10205000081D0020C01C002000000940004009406D
:1020600000800940141D0020B0030020101D002036
:102070000C1D0020D81C0020181D00201C1D002055
:10208000001D0020201D0020041D0020241D002014
:10209000281D00202C1D0020C803002010B5044678
:1020A000AFF30080204600F005F80446AFF300804F
:1020B000204610BD70B500F10F06F608F600B042DC
:1020C00040D2082E04D2082602E0083000F047F87B
:1020D000DFF804512C68210005D1002007E00268D8
:1020E000B24221D2011D08680028F8D12068291DBC
:1020F0000A68824222D01368B34238BF111DF7D359
:1021000012E093190B60801B54685C600B681860C8
:102110001660096800291DBF48680028081D0020B6
:10212000286002F1080070BD61B10A681068A0F172
:102130000803B342E5D250680860EAE700F094FD76
:102140000028C2D1002070BD10B5040006D0AFF346
:102150000080204600F003F8AFF3008010BD002897
:1021600000D1704770B4A0F108021368072B2BD977
:1021700013F0070F28D1184C616809B18A4202D2C6
:102180005160626013E0486800B3904238BF014676
:10219000F9D31BE0964203D11B180B600A4606E0F8
:1021A000486810B1134498420ED350604A6050689A
:1021B00050B11368D518854206D100262660016803
:1021C000CB1813604068506070BC704708680E18E8
:1021D000B242DFD270BC7047201C0020FFF7B4BFB2
:1021E00010B40100FF20A04B1A0014688C4205D0E7
:1021F00013F54074A24201D00C32F6E713F5407398
:102200009A420DD0137918000300DBB2042B03D0DF
:102210000300DBB2052B03D10023136000231371ED
:10222000C0B210BC70472DE9F34F81B09346029CB9
:102230000027DFF8388298F80000102806D18C4873
:10224000016851F001010160002068E0002C65D0B8
:1022500098F80000401C88F8000098F800000E284C
:1022600005DB8348016851F00201016004E0804809
:10227000016831F0020101607E48814699F8000052
:10228000002802D119F19009F8E7002089F8000030
:1022900019F104000500812C03D380200700803C45
:1022A00002E0270000200400DFF8CCA1DAF80000EB
:1022B00028606F600020C5F88800002069688842A7
:1022C00008D29BF8001005EB000211721BF1010B04
:1022D000401CF3E701980068002802D101980560CE
:1022E0000BE0019800680600D6F88800002802D0AC
:1022F000D6F88860F8E7C6F88850DAF8000000F0F1
:1023000090F8DAF80000401CCAF80000DAF8000083
:1023100000289BD10120CAF8000097E72868BDE893
:10232000FE8F10B40168002905D151490A6852F0A6
:1023300004020A601FE04F4A11000B1D0468A3420B
:1023400005D012F51063994201D09031F5E712F5EE
:102350001062914205D1464A136853F00803136096
:1023600009E00268D2F88820026001220A703F4A20
:1023700013785B1E137010BC704710B400203B49EB
:10238000087001203C4908600021080080B2102834
:1023900008DA0122374B0C00A4B2902044431A55AE
:1023A000491CF2E70020010089B2402915DA0C210E
:1023B0002D4A00230400A4B24C43135103009BB2E6
:1023C0004B43134400241C7103009BB201FB03F137
:1023D000114400228A60401CE5E723482749086031
:1023E0000020234908600FF269002549086010BCED
:1023F000704780B522480068804701BD10B41A4B71
:102400001A001468844205D013F54074A24201D02A
:102410000C32F6E713F540739A4200D0117110BCEC
:10242000704710B415490A68106001220B681A71D0
:10243000144A12680B689A600A680C320A600A4AE9
:102440000B6812F54074A34200D10A6010BC7047BB
:102450000D490868401E08600868002802D14FF442
:102460007A70086070470000F4100020821D002080
:10247000C81C0020F4030020D01C0020D41C002025
:10248000CC1C0020D81C00208C030020012210F05E
:102490001F018A40DFF8141403005BB25B0941F8A6
:1024A00023207047012210F01F018A40DFF800143A
:1024B00003005BB25B0941F8232070472DE9F04728
:1024C00004002078012806D035D303281BD00ED372
:1024D000042824D02FE0DFF8DC535026DFF8D8732F
:1024E0005FF000085FF0FF395FF01A0A25E0DFF8BF
:1024F000CC535026DFF8C0735FF008087FF008095E
:102500005FF01A0A19E0DFF8B8536026DFF8B473F9
:102510005FF000085FF0FF395FF0300A0DE0DFF890
:10252000A8535026DFF8A4735FF400287FF4002935
:102530005FF0000A01E0002047E02879C00701D5DC
:10254000002042E0DFF888130A68012395F9220091
:1025500083401A430A606068686160882884A068C4
:10256000A861E068E861686850F001006860286868
:102570000660286847602868C0F808802868C0F8A6
:102580000C902868C0F820A060682968C1F8000194
:102590006068401C2968C1F8100101202968C1F851
:1025A000040101202968C1F8140140F201102968D2
:1025B000C1F8200195F9220040B2FFF773FF95F9A9
:1025C000220040B2FFF762FF2800BDE8F0877CB52B
:1025D00005000E008DF800606A46012115F1080023
:1025E000FFF721FE0400002C06D0DFF8EC020068A3
:1025F000002801D500F066F8200076BDF8B505008A
:102600000E0017003A00310015F10800FFF70BFE2D
:102610000400002C05D0B0480068002801D500F067
:1026200051F82000F2BD0020AC490860A148AC4937
:1026300001600021816000214161002101840021AD
:10264000816100214160082180F822109B49A54A40
:102650000A6000228A6000224A6100220A84002265
:102660008A6100224A600D2281F8222094499E4A04
:102670000A6000228A6000224A6100220A84002245
:102680008A6100224A600E2281F822208E49974AF0
:102690000A6000228A6000224A6100220A84002225
:1026A0008A6100224A600F2281F822209049086046
:1026B0000FF2451087490860704780B5854800686B
:1026C000804701BD10B5854C206850F001002060A6
:1026D0007848874908602078C0070AD57D48006897
:1026E000804784488449096801600121FEF7DCFCC9
:1026F000F1E710BD80B56F48804908608048814986
:10270000086081480168491C016000F00FF801BDB4
:1027100080B56A48794908607C487A4908607C48F5
:102720000168491C016000F001F801BD10B5734C4F
:1027300020680068006900072DD52068006840699E
:10274000000728D56F480168096851F00201006848
:10275000016020680068D0F81001401C21680968F9
:10276000C1F8100120680068D0F81001216849699B
:102770002268128C1144884205D120684069216882
:102780000968C1F810012068C069804701202168EC
:102790000968C1F81401206800680069C00629D5DD
:1027A000206800684069C00624D50421206880683C
:1027B0000068FFF723FE20680830FFF7B2FD2068AD
:1027C000406830F40010216848604FF400702168C0
:1027D0000968C1F82001102021680968C8604D49C6
:1027E0000878002803D00878401E087002E04A48A4
:1027F000FEF7FCFC10BD000010B53D4C2068806861
:1028000000282BD020684068800227D4022120684D
:1028100080680068FFF7F2FD2068406850F40010FF
:102820002168486020688068083021680968C1F81C
:10283000080120688068406821680968C1F80C01B7
:10284000102021680968886032480178491C0170AD
:102850004FF4807021680968C1F82001206890F861
:102860002200082806D00D2807D00E2808D00F28EF
:1028700009D018E01148206017E01148206014E0EA
:102880001148206011E00B482060134800680028C0
:1028900008D520480078002804D11048016849086C
:1028A0004900016001E00348206010BD00E100E044
:1028B00080E200E0FC1A0020C0084000201B00203D
:1028C000441B0020CE184500681B0020FF18410063
:1028D00010040E40381D0020C01C0020401D0020A8
:1028E00000060E40000009400040094000800940F9
:1028F000441D00203C1D0020D81C0020481D002045
:10290000301D00204C1D0020501D0020341D0020D3
:10291000541D0020861D0020385E080030B40A21B6
:10292000AF4A0300DBB24B431344DB79012B08D1E0
:10293000AC4B0400E4B24C431444247A03EB84030C
:1029400007E0A94B0400E4B24C431444247A03EB9F
:102950008403A64C0500EDB254F825401C60002409
:102960000500EDB201FB05F1545430BC704730B4A2
:102970000A219B4A0300DBB24B431344DB79012B52
:1029800008D1994B0400E4B24C431444247A03EB7D
:10299000840307E0934B0400E4B24C431444247ACC
:1029A00003EB8403914C0500EDB254F825401C6004
:1029B00000240500EDB201FB05F1545430BC704712
:1029C00010B48B4A864B0400E4B20A214C4303EB5B
:1029D0000401097A02EB8102136884490400E4B21D
:1029E00051F824104B40136010BC70472DE9FC4196
:1029F0004FF47A644FF4FA75601B1421B0FBF1F6C2
:102A000014273800C0B2002835D05FF014084046C3
:102A100080B200280DD077480068009001216846F8
:102A2000FEF742FB0028F9D000F03AF8B8F10108AF
:102A3000EDE73800C0B2142805D1C8216846FEF77A
:102A400033FB0028F9D000210800C0B20D280EDAAF
:102A50003800C0B2421E624B8C465FFA8CFC0A20E2
:102A600000FB0CFC03EB0C004280491CECE7A41BB0
:102A700075197F1EC5E700F013F8C8216846FEF7F8
:102A800013FB0028F9D00C20FFF748FF5A480168D3
:102A900051F0010101605948FEF7A8FBBDE8F38140
:102AA00070B500242000C0B20D2880F298800A255D
:102AB0004B4E2000C0B26843305C012865D1200035
:102AC000C0B268433044B0F90200002804D12000AD
:102AD000C0B2FFF74CFF51E02000C0B26843304461
:102AE000B0F90200142804D12000C0B2FFF716FF8D
:102AF00044E02000C0B2684330442100C9B26943B9
:102B000031448988491E81802000C0B26843304426
:102B10008088002832D12000C0B2684330448079D8
:102B2000012817D12000C0B2FFF721FF2000C0B25A
:102B3000684330442100C9B269433144B1F90210FD
:102B4000D1F1140181802000C0B2684330440021DB
:102B5000817113E02000C0B2FFF7E0FE2000C0B298
:102B6000684330442100C9B26943314449888180B7
:102B70002000C0B26843304401218171012021004E
:102B8000C9B205FB01F5705527E02000C0B26843CB
:102B9000305C022821D12000C0B2684330442100BB
:102BA000C9B2694331448988491E81802000C0B27E
:102BB00068433044808800280FD12000C0B2FFF75E
:102BC000FFFE2000C0B2684330442100C9B205FBBB
:102BD00001F506EB050149888180641C62E770BD40
:102BE000F0020020300C0E40340C0E40BC020020DD
:102BF000380C0E40D81C0020C41C00207403002098
:102C000062F30F2262F31F42401810F0030308D052
:102C1000C91A1FD3DB0748BF00F8012D28BF20F8D1
:102C2000022D130030B414461546103928BF20E990
:102C30003C00FAD8490728BF20E90C0048BF40F8FB
:102C4000042D890028BF20F8022D48BF00F8012D6F
:102C500030BC7047C91818BF00F8012DCB0728BF3A
:102C600000F8012D70470A0D0749086808B10020D7
:102C700070470648C008C00008600549C908C90077
:102C8000091A0160704700BF681D00200700082076
:102C900000400820FEB504000D0016003088ADF895
:102CA00000007088ADF802002800C0B2002807D1EB
:102CB00006270720ADF804000520ADF8060006E061
:102CC0000B270E20ADF804000A20ADF8060020788E
:102CD000002828D0BDF80200802824DA2800C0B2DD
:102CE00000280BD16946DFF8B42723780720434337
:102CF00002EB0300E03800F036F80BE06946DFF83D
:102D0000A02723781C20434302EB0300B0F5A86002
:102D100000F029F8BDF802103800C0B24118ADF833
:102D20000210641CD3E7F7BD70B401214288082368
:102D300092FBF3F243880824C9B293FBF4F504FB39
:102D400015339940DFF85C37048824011C441500D2
:102D5000EDB20688360133441600F6B29B5D0B4394
:102D6000635570BC70472DE9F84F04000D002888AA
:102D7000402880F2C1806888802880F2BD80A888C1
:102D80008DF8000029889DF800004118412904DBD6
:102D90002888D0F140008DF80000E888ADF80200E6
:102DA0006988BDF802004118812904DB6888D0F1E8
:102DB0008000ADF80200002108009DF8002080B2DC
:102DC00092B2904280F0958001200600002080465B
:102DD00068880822012390FBF2FC02FB1C0013FA16
:102DE00000F007006888082290FBF2F0814600227C
:102DF0001000BDF8023080B2984278D2E8880823EB
:102E000090FBF3FC03FB1C0000280CD10B009BB2D1
:102E1000E8885FF0080C90FBFCFC404680B20CFB9D
:102E200003039A460DE00B009BB2E8885FF0080CA4
:102E300090FBFCFC1CF1010C404680B20CFB030330
:102E40009A46504680B2205C30421ED0DFF854369D
:102E50008C461FFA8CFC288810EB0C0C5FEA0C10D7
:102E600003EB000CCE461FFA8EFE8B461FFA8BFB3F
:102E7000288810EB0B0B5FEA0B1018444B469BB2F3
:102E8000C05C38430CF80E001DE0DFF818368C46A5
:102E90001FFA8CFC288810EB0C0C5FEA0C1003EB7B
:102EA000000CCE461FFA8EFE8B461FFA8BFB28883D
:102EB00010EB0B0B5FEA0B1018444B469BB2C05C47
:102EC000B8430CF80E0076003000C0B2002803D1E1
:102ED0000120060018F101087F003800C0B2002868
:102EE00003D10120070019F10109521C80E7491C98
:102EF00062E7280000F00BFABDE8F18F2DE9F04100
:102F00000400A78821883800C0B24118412903DB9A
:102F10002088D0F140000700B4F806806188404660
:102F200080B24118812903DB6088D0F1800080469F
:102F300021880A0092B223883800C0B2C3189A428E
:102F400038DA6088082290FBF2F0060060880822D8
:102F5000012390FBF2FC02FB1C0013FA00F00500B9
:102F600000200200434692B29BB29A4220D2DFF880
:102F700034C50A0092B21201624433009BB28E46FD
:102F80001FFA8EFE5FEA0E1EF444B6461FFA8EFE4E
:102F90001CF80EC03CEA050C02F803C06D002A00C4
:102FA000D2B2002A02D101221500761C401CD8E7BB
:102FB000491CBEE7200000F0AAF9BDE8F08110B579
:102FC0000020010089B2402912DA00210A0092B2E1
:102FD000102A0BDADFF8CC2403009BB21B011A4441
:102FE0000B009BB20024D454491CEFE7401CE8E7D7
:102FF000DFF8B40400F08BF910BD10B50400DFF861
:10300000AC040178C9071CD4016851F001010160CA
:10301000DFF89C2414704FF40040DFF89814086027
:103020000121DFF894040068FEF73BFDDFF88C1403
:1030300008600020DFF88814086000F0B6F801206E
:1030400000E0002010BDFEB50C20FFF767FCDFF8A4
:1030500074542868DFF8681408600FF23530DFF820
:1030600068140860DFF86414DFF864240A60DFF88D
:10307000640403230370DFF8603443604FF480542A
:1030800084608261C16101210184002101730021FA
:103090004173FEF771FCDFF820140860DFF81404B8
:1030A0000460DFF838444FF48047276000210A2984
:1030B00001D2491CFBE70760DFF824642868306010
:1030C00002213000FDF7F0FF0028F9D027602868C2
:1030D000306002213000FDF7E7FF0028F9D00B2413
:1030E000002738002100C0B2C9B2884210D2DFF8F0
:1030F000F4033900C9B2405CFFF77FFF28683060F5
:1031000005213000FDF7D0FF0028F9D07F1CE8E74B
:10311000DFF894733800FFF7F1FE00F046F82868F6
:1031200030604FF4FA713000FDF7BEFF0028F8D090
:10313000A420FFF762FF3800FFF7E0FE0020ADF8A3
:1031400004002820ADF806003220ADF80800322037
:10315000ADF80A0001A9DFF89003FFF704FEDFF8DD
:103160008C53280000F0DAF9062148434008D0F1DA
:103170004000ADF802003820ADF800006A4600219A
:103180002800FFF787FD00F010F8DFF864030168FE
:1031900051F008010160DFF85C03FEF727F8F7BD86
:1031A00080B5C9480068804701BD1CB5DFF84803F9
:1031B0000068002817D50020C1490860BB4C206872
:1031C00050F0805020602068C0000CD5BE480068D8
:1031D0008047BC480068009001216846FDF764FF05
:1031E0000028F0D1F8E713BD38B50400C348418882
:1031F000D1F18001C5884D1BAC480178C9071CD4AA
:10320000AB4A54F0B0011170C5F3031151F0100135
:10321000517015F00F0191704FF40041A54B1960EA
:10322000016851F0010101600321A3480068FEF725
:1032300038FCA2490860012000E0002032BD2DE9E1
:10324000F84F04009A4A1600AC494B88C888C31846
:103250005B1E082093FBF0F74B88C888C3185B1EE1
:1032600008205FF0010893FBF0FC00FB1C3318FA08
:1032700003F82000C0B280B25FEAC0095FF0010A23
:1032800000231800B1F806C080B2604532D2002099
:1032900005005FF0000C6046C0B208281BDADFF8BA
:1032A00004E2CB461FFA8BFB6046C0B210EB0B0B5F
:1032B0005FEA0B107044BE465FFA8EFE10F80E00F7
:1032C00010EA080F04D05046C0B210FA0CF00543C3
:1032D0001CF1010CDFE73570761C5FFA88F85FEAB5
:1032E00058084046C0B2002802D1802080467F1E88
:1032F0005B1CC6E74FF40040784B1860C9886E48E5
:103300000068FEF7CEFB6D490860BDE8F18F30B470
:103310007B4A9188002908D1418851800188118019
:10332000C188D180818891802FE041885488A14252
:1033300001D24188518001881488A14201D20188BC
:103340001180B0F90050B0F904104D19B2F9001015
:103350006D1AB2F904402C1B210009B2012902DBCD
:10336000918861189180B0F90250B0F906104D199A
:10337000B2F902106D1AB2F90630EB1A190009B24F
:10338000012902DBD1885918D18030BC7047000078
:1033900038B5464C2078C0070BD54A4800685049DC
:1033A00008605848584908600FF28900464908608B
:1033B0003FE0434D19212800FDF776FE002834D068
:1033C0004048006828604E4A9088002831D04B4918
:1033D00090888880D088C88010880880508848806D
:1033E000002090800020D08000201080002050809D
:1033F0000A8888888218521E082092FBF0F20888FA
:10340000082390FBF3F0121A521C40480270404807
:103410000988082291FBF2F101700078FFF7E4FEC1
:103420000FF211002849086003E0206830F0805056
:10343000206031BD38B521480068FEF7D1FE042870
:103440002AD1324C207800281AD018480178C907B0
:103450000ED501684908490001602D4D2878FFF715
:10346000EEFE2878401C28702078401E207003E073
:1034700027480078FFF7B8FE26482349086007E090
:103480000A490A68244802400A601E481E4908602A
:103490001D4800680C49086031BD0000784F0800E5
:1034A00010580800F40C002088020020A41C002002
:1034B00024190020340E0E40B81C0020B41C00203B
:1034C000AC1C0020D81C0020A01C0020BC1C00202C
:1034D000811D0020D81A0020000E0E40300E0E4034
:1034E000A81C0020B0020020685508009C020020A3
:1034F000C41C002090020020C01C0020181C0020CA
:10350000101C002091330800B01C00207F1D0020FB
:10351000801D002035340800FEFFFFEF00F101039D
:10352000810704D010F8011B820781B1FAD102682B
:10353000A2F10131914311F0803104BF50F8042F02
:10354000F6E709BAB1FA81F100EBD100401CC01ACC
:103550007047FEE7012210F01F018A40DFF8A41433
:1035600003005BB25B0941F823207047012210F091
:103570001F018A40DFF8901403005BB25B0941F839
:103580002320704770B51224DFF8900401680122EF
:10359000A240114301600020DFF884140860DFF8C6
:1035A0008404DFF86C5428600021DFF8682411706F
:1035B0000021DFF8742411700021DFF8502411700D
:1035C000DFF8681401600021416000218160002162
:1035D000C16028680068006850F0800029680968A8
:1035E0000860DFF84C64DFF84C04006830600521A7
:1035F0003000FDF759FD0028F9D0DFF83C042968B8
:103600000968086124202968096808600020296881
:10361000096848604FF4A1702968096848624FF64C
:103620003560296809688862200040B2FFF79EFF74
:10363000200040B2FFF78EFF0020DFF80014086082
:103640000020DFF8FC1308600FF22110DFF8F413FC
:10365000086070BD80B5DFF8EC030068804701BDED
:1036600010B401210800C0B2002815D0DFF8CC2327
:103670001068002810D0DFF8C80303681B78DFF853
:10368000904324682468636303685B1C03601068CC
:10369000401E1060491EE5E7DFF8A003006800281F
:1036A00018D1DFF86C23042013681B689862DFF8D8
:1036B0006803DFF874331B781B011844807A0028F4
:1036C0000ED110680068006850F00200126812689D
:1036D000106005E00420DFF8382312681268506299
:1036E00010BC704710B5DFF860030468DFF85C03B6
:1036F00000680440E00506D5DFF82403016851F0B6
:103700008071016030E0A0071FD5C1480168097BC6
:1037100009071AD501680968096B02689268117077
:1037200001688968491C02689160C4490A68521E90
:103730000A600968012917D101680968096851F010
:1037400002010068006801600EE0600707D5B0481C
:103750000068007B800702D5FFF782FF04E0B048D5
:10376000016851F00071016010BD000010B5AE4954
:10377000A84800780A78904275D0A54C00202268AD
:10378000126850602420226812681060A24A0878EB
:103790000001105C002828D1206800684068097882
:1037A00009011144097A50EA01402168096848601A
:1037B000206840684068A149086020684068083077
:1037C0009F490860FFF74CFF0221206840680068AD
:1037D000FEF714FE2068C06850F006002168C8603B
:1037E0000FF285009749086034E008780001105C0A
:1037F00001282FD120680068406823681B68586042
:103800008E480B781B0113445B680360097809013B
:103810001144C968226891600068012808D12068B5
:103820000068006850F0030021680968086007E03C
:1038300020680068006850F001002168096808608D
:103840002068C06850F008002168C8600FF2D100FD
:103850007C4908607248006810F07F4F03D00FF277
:1038600029107849086010BD38B56F4C6A48217836
:1038700009010844807A002815D1704800680028A2
:1038800021D1634801680968096A49071BD50168A5
:103890000968096AC90716D50168C96831F00601C7
:1038A0000068C1600FE06548006800280BD15848E7
:1038B00001680968096A490705D50168C96831F0D6
:1038C00002010068C160524D2868007B80071DD44A
:1038D0000421286840680068FEF790FD2868001DF4
:1038E000FEF71FFD4E48016849084900016058482D
:1038F000544908602078401C207044480178491ED3
:1039000001702078102801D1002020704448006800
:1039100010F07F4F03D00FF271004A49086031BDAB
:1039200046480068002825D1394801680968096AB5
:1039300089071FD501680968096AC9071AD501688E
:10394000C96831F008010068C1603548016849085C
:10395000490001603E483B49086033480178491CF2
:1039600001702A490A78521E0A700178102901D183
:10397000002101702A48006810F07F4F03D00FF239
:10398000090030490860704738B5254C2068C001EF
:1039900030D520482049027812010A4403781B01DF
:1039A0000B445B7A5B1C5372007800010844407A38
:1039B00003281BD11C480178491C017013490A785F
:1039C000521E0A700178102901D100210170104D9A
:1039D0002868007B800709D50621286840680068B0
:1039E000FEF70CFD2868001DFEF79BFC002008492F
:1039F0000968C860206820F07F40206014481149A1
:103A0000086031BD00E100E080E200E0851D00209B
:103A1000F41C0020831D0020F414002010040E402C
:103A2000F01C0020E41B0020841D00200040084002
:103A3000EC1C0020D81C00201D1D0200F81C0020DA
:103A4000FC1C0020E81C00202C40084020400840BE
:103A50006D3708002DE9F14F98B000F061FB0B9035
:103A6000002000908046DFF8A044DFF8A004017831
:103A7000012946D0012101702068020CA260616812
:103A80000B0CE360DFF888542F683F0CAF606D6863
:103A90002D0CDFF87C74FD601343A360C4F80C8028
:103AA000CDF8008000250122009F02FA05F61E4095
:103AB000AE40374300976D1C102DF5D3009BA360DB
:103AC000DFF84C34009D6D009D60C3F80C80084306
:103AD0002060C4F80480CDF800800027009902FA25
:103AE00007F30340BB40194300917F1C102FF5D30F
:103AF0000098206000984000DFF814140860C1F8B6
:103B0000048004A80CA916AA13AB11AD189F04EBEE
:103B100087070397189EDFF8F8E30EEB860CA6469E
:103B2000022657F8089BC0F800905CF8089B41F803
:103B3000049B50F8049B42F8049BDEF80090DEF8EA
:103B400004A04AEA090943F8049B45F8048B0EF1E6
:103B5000080E761EE5D1012000F0E6FADFF8B45336
:103B60000498002800F0488102900C980190189861
:103B700054F820006862189854F8200028601898BB
:103B800054F820006865189854F820006865029879
:103B90002865019828650298686001986860029815
:103BA000286201986862019828605FEA884033D4EF
:103BB0000B9800F0B9FA00BF012000F0B5FA0198A7
:103BC00068600298286000BF00BF00BF00BF00BF50
:103BD00000BF00BF00BF00BF00BF0298686001982F
:103BE000286008F10108CC480178491C0170C9B26D
:103BF000022905D3032903D3042924BF002101701E
:103C00000498E96A0840119011980028CDD02068E6
:103C10006168084313902FE0002013A916AA04AB93
:103C200027464FF0020C4FF4005E3E68D7F8049030
:103C300059EA0606D3F8009010D05FEAC97A44BF6B
:103C4000DFF8D8A22AF810E002D45FEAC67A01D5DC
:103C5000401CC0B276084FEA5909EED142F8049BE5
:103C600041F8046B08371B1DBCF1010CDDD10020AD
:103C700004900C9005900D900B9800F055FA0020E0
:103C80008DF840000021074613AA04AB0A9316AB37
:103C9000099311AB08930CAB9D4E079606941668DA
:103CA000002E7BD00A9E36680F96002E76D0089E96
:103CB000D6F800E0CDF838E0079ED6F800C0079EA1
:103CC000766846EA0C064FF000094FEA471C4FEAB7
:103CD0005C0ACDF854A00AE05FEACA7C01D5401C1A
:103CE000C0B24FEA5E0E4FEA5A0CC2F800C0DDF8CF
:103CF00024C0CCF800E0D2F800A0BAF1000F32D016
:103D0000DDF824C0DCF800C0BCF1000F2BD05FEA66
:103D1000CE7C04D4E0E7491C760809F10109002EA5
:103D2000DDD05FEAC67CF7D5C9B28842F3D1D3F8BB
:103D300000C04FF0010B0BFA09FB2CEA0B0CC3F887
:103D400000C0DDF854C05FFA89F90CEB690BDFF8AD
:103D5000CCC12CF81B801EF0FE0CC0D14FF0010B23
:103D60008DF840B0BBE70F9EDDF838E026EA0E067E
:103D7000DDF828E0CEF80060089E4FF0000EC6F88F
:103D800000E0C2F800E09DF84060012E18D104A8C0
:103D900050F82700002828D1F04626E0069E366815
:103DA000DDF818E0DEF804E04EEA060E03E0009EBF
:103DB000009E4FEA560ECDF800E0009E002EF6D190
:103DC0007F1C069E08360696079E083607961B1D22
:103DD000089E361D0896099E361D09960A9E361DB8
:103DE0000A96121D022FFFF65AAF012000F09CF92F
:103DF000049800287FF4D9AE059F494E002F55D076
:103E0000189854F820006862189854F82000286028
:103E1000189854F820006865189854F820006865D0
:103E200002970D98019002983065019830650298CC
:103E30007060019870600298306201987062019819
:103E400030605FEA88403FF5E7AE0B9800F06CF910
:103E500000BF012000F068F901987060029830609E
:103E600000BF00BF00BF00BF00BF00BF00BF00BF5A
:103E700000BF00BF029870600198306008F101082F
:103E800025480178491C0170C9B2022905D30329CC
:103E900003D3042924BF00210170F06A3840129036
:103EA000CFD0A068E16808431490E5E603988068E5
:103EB000706203988068306003988068706503982A
:103EC00080687065189854F820006862189854F853
:103ED00020002860189854F820006865189854F855
:103EE000200068650398806870620398806830607D
:103EF0000398806870650398806870650B9800F07F
:103F000013F919B0BDE8F08FB01B0020891D002007
:103F1000C01B0020100C0E40F2030020941700205C
:103F2000100E0E40F8B504460D460026754F387841
:103F300038B1304600F0FCF8761C3878F6B286428C
:103F4000F7D371480021018104612846BDE8F240A1
:103F500000F010BB44F204510180002141804FF475
:103F600088618180704738B50024664D287838B163
:103F7000204600F0DDF8641C2878E4B28442F7D3D0
:103F800031BD10B55F4800210170604801705E4C82
:103F9000042060701420207105206071E1701420ED
:103FA000A070012020700320A07100F0E8FA00202A
:103FB000E06010BD2DE9F04100250027DFF85081B9
:103FC000A8F88C50504E3189411A89B2308108F2DC
:103FD0008C025088091889B2C82908D3C82308461A
:103FE000B0FBF3F007464FF6387303FB0011518026
:103FF0004848027822B1FFB2BA4234BF0022D21B35
:10400000027045480068800800F07F70B0F1007FC2
:1040100002D0B0F1017F01D100F0C1FAF0680100D7
:1040200018BF80470024374E307890B1F9B220464F
:1040300000F01DF90543611C3078CCB28442F5D301
:10404000EDB235B1B8F88C004FF480710843A8F890
:104050008C0040460421002280F88020401C491E2C
:10406000FAD100203178A1B12C4A137818252B42BF
:104070000AD008EBD00393F88050012600F0070720
:10408000BE40354383F88050401C0832C0B288429D
:10409000EBD3B8F88C00BDE8F08138B503460020BA
:1040A0001E4901EBC3046179E278174D2D5642FA9F
:1040B00005F5EDB2042D38BF0425124A127893425B
:1040C0001ED22079C022104213D1084600F03EFAD9
:1040D000C5EBA501814203DA217901F0FB012171D1
:1040E000694209B281420BDB217941F0040121715F
:1040F00032BD00F0FB0020712A46184600F09EFAFF
:1041000032BD00008C1B0020D01B00208A1D002027
:10411000941700208D1B002040070E40F41500204E
:10412000EFF310807047704780F310887047704736
:1041300010B5044600F00AF8DFF82404012100F865
:10414000341000EBC4000F21417010BD30B4DFF813
:10415000103403EBC0046279A179022503F83050D2
:10416000DFF80004038843F0020303800020A070FE
:1041700091420ADBDFF8F033D018001D802300F8ED
:10418000013B521CD2B29142F9DA30BC7047F0B414
:10419000DFF8CC1301EBC00081794279DFF8C4333A
:1041A0001D88914220DBDFF8C47307EB420407EB64
:1041B0004206378890F801C0BCF10A0F0AD2B4F861
:1041C00040C0674538BFACF1010703D3BC4505D2F9
:1041D00067467F1CA4F8407045F00805521CB61CC9
:1041E000A41CD2B29142E4DA1D80F0BC7047F0B555
:1041F000DFF870231388DFF8704304192779DFF89C
:104200006CC30CEB4005B5F840603CF810E0764517
:1042100012D2C8192071D64949798039C0B2C9B2C1
:10422000884222D380202071B5F84000401CA5F8B8
:10423000400043F0080318E0B6450DD2781A20710B
:10424000CB490979C1F18001C9B2C0B281420CD316
:1042500080202071701EEAE7812F24BF781E207114
:10426000207980283CBF401C20711380F0BD2DE9CF
:10427000F04F83B081460F4600208DF808000024DF
:104280004846FFF70AFF0646CB46DFF8D48208EB24
:10429000CB05E878297901F00301491CC8400228C0
:1042A00038BF0220E978091A89B218F83B000128C2
:1042B0000DD0022822D0042855D0082800F006810D
:1042C000102800F0BA80202800F01D813AE1012476
:1042D000A44E30884FF40071084330804846FFF701
:1042E00056FF6878401E6870C0B210B94846FFF7A4
:1042F0002DFF9D489E498978417023E12879400728
:104300000CD56879984940180471202008F83B00C2
:104310000124944E308840F4805012E1002E48BFB2
:104320000026B6B2E878864206DB042008F83B0097
:10433000AC7001248B4E01E1002F00F003818A480C
:104340004078002840F0FE8095F806906E79B145DF
:10435000C0F2F88039463046FFF749FF761CF6B2C6
:10436000B145F7DAEEE0300048BF002080B2E978CE
:1043700088425EDBDFF8F8A17B489AF802104170B2
:10438000A878401CA8702879C0F3C200019070B3CF
:10439000002775480078012829DB5F451ED008EB0F
:1043A000C70000900079C0F3C2000199C9B28842E9
:1043B00014D13846FFF771FEE978711A009AD27865
:1043C000801A814204DAAC7001208DF8080005E003
:1043D00018F837001028F6D00828F4D0781CC7B297
:1043E000614800788742D8DB9DF8080040B99AF808
:1043F000010028B101245B4E308840F40060308019
:10440000A8789AF801108842C0F09C80554E3088F8
:1044100040F003003080102008F83B000020687056
:104420002879C021084200F08D80484600F036FA15
:1044300088E04846FFF78AFE84E0287940070ED5D9
:1044400068794949401880210171202008F83B0013
:104450000124444E308840F48050308049E73000D9
:1044600048BF00203F4E328880B2884206DA0820DA
:1044700008F83B00012442F48060EEE742F00100BE
:104480003080A878DFF8E8B09BF8011088423CBF84
:10449000401CA8702879C02108421CBF484600F083
:1044A00023F99BF8030000283FF423AF6978814289
:1044B0003CBF78186870FFF41CAF4846FFF738FE21
:1044C000012430884FF400710843C6E72648284A83
:1044D00092784270A8780028ABD0300048BF002006
:1044E000204E328880B28142BEBF102008F83B00C7
:1044F00042F00100A4BF012442F480603080A8781B
:10450000401EA8701EE06879174940180179491CBF
:1045100001712879400705D408068AD5102008F8CB
:104520003B000FE00F4E12488079C9B2814204D39C
:104530004846FFF7FDFD0124ECE60124308840F4F5
:1045400080603080204603B0BDE8F08F074901EB62
:104550004002B2F9402031F91000101A00B2704741
:10456000F4150020201800208C1B00209417002038
:10457000D01B002080B5010018BF804701BD134843
:1045800000F110010222002340F8043B40F8043BF4
:1045900041F8043B41F8043B521EF5D1704710B579
:1045A0000A4C2068A168084305D009480168080042
:1045B0001CBF002088476068E168084305D00448B4
:1045C000016808001CBF0120884710BDB01B0020F7
:1045D000E01B00202DE9F041069C079DCF4E377867
:1045E000DFF83CC30CEBC70C8CF8033000238CF8CD
:1045F0000430CC4B93F800E08CF807E09CF8048082
:1046000062F3C5088CF804808CF805008CF806105D
:10461000C54800EB8E00690181700EF10100187031
:104620009CF8040064F301008CF8040040F0800062
:104630008CF80400781C3070BDE8F08138B5044671
:104640000846154600F036F9B748B0F920100A467A
:10465000B0F922309342B8BF1A46B0F92400904214
:10466000B8BF024659184018694209B200B28142E7
:1046700006DBAB4901EBC4010B7943F004030B717A
:10468000A2EB8201081800B232BD0023521C49B9C6
:104690004FF6FF73D2B20AB14FF6FF7398B270476C
:1046A000521E40005FEA004C02D4D2B2002AF7D179
:1046B0005FEA014C12D5D2B2002AEFD05FEA034C78
:1046C000EAD45B00521E80B289B2884224BF401AED
:1046D0005B1C4908D2B2002AF0D1DFE7521C490026
:1046E0005FEA014CFAD5E6E72DE9F84F00268C4940
:1046F00001EBC00999F807A0DFF82CB20BEB8A0791
:10470000B878400900F1010899F8050000F0D2F8E6
:10471000BBF92420BBF92210BBF920408C420BDBF3
:10472000914204DB4FF48055084613460BE0002508
:1047300020460B46144606E0A242F3DB4FF4005538
:10474000104623460C460C222118A1EB430189B2E6
:10475000C01A80B2FFF799FF401985B242F6FF7088
:10476000ADF800004FF4405099F8049009F0C001F2
:10477000802916D1A5F2672042F63231884228BF3F
:10478000012608D240F23370854223BF40F23270D6
:10479000281A85B2002542F29B10ADF80000002EC9
:1047A0007AD14FF480745FFA88F2082A05D2C2F1F8
:1047B0000801C9B26408491EFCD121464E1E052AD3
:1047C00038BF490002D3072A28BF49080022FFF753
:1047D0005CFF09F0C001402916D13BF82A10B1F561
:1047E000C05F08D3A1F5C05189B28D420CDA05F53E
:1047F00040518DB208E001F5C05292B2AA42BCBF4E
:1048000001F540512BF82A10B978CA0705D501F0F7
:10481000FE00B8700021002004E0890746BF014671
:10482000002000213BF82A2051188D42A4BFB878FF
:1048300000F0FD0005DA4019824205DBB87840F04F
:104840000200B8702BF82A503BF82A00B0F5405F00
:1048500024BFA0F540502BF82A0000222146BDF8C5
:104860000000FFF712FF002201463BF82A00FFF785
:104870000CFF0146F0B2884238BF01462B48504435
:1048800090F88420CBB29A4206D080F88410284851
:10489000018841F004010180BDE8F18F204901EB5E
:1048A000C000C079204901EB8000817841F001010E
:1048B00081707047F8B504461C4E06EB440505F2BE
:1048C00040070C22B5F840107888FFF7DEFE06EBB3
:1048D00044060C2201467088FFF7D7FEADF80000B1
:1048E0000C22B5F84010B888FFF7CFFE01460C2225
:1048F000B088FFF7CAFE0646ADF802600A4F2046B0
:10490000FFF724FE3884B5F84000BDF90010411AC5
:104910007984801BB884F1BD000000008C1B00204E
:10492000F41500208A1D00208C1A00209417002006
:104930002018002089488A490860042089490860B5
:104940004FF4807088490860884A89481060894916
:104950000868C007FBD5136887480343136087487E
:10496000874A106008688007FCD54FF40070854ABC
:104970001060854842F2110202600A681207FCD5F5
:1049800042F21202026008680007FCD57F48026804
:1049900052F44412026008684006FCD570470020BB
:1049A0007B49086000207B49086041F26F707A49BA
:1049B0000860002079490860032079490860704741
:1049C00070B5784C724D29682068091A012914D0F5
:1049D000754E3068401C30607448016851F0200109
:1049E000016073480078800707D57248FCF7FEFB2A
:1049F0003068FCF71BFCFCF70BFC286820606E4855
:104A0000016831F4801101606C48016831F00401E3
:104A100001606648016851F0804101600168490009
:104A200001D530BFFAE770BD654866490860664841
:104A300066490860704780B5654866490860664801
:104A400066490860664867490860674867490860C2
:104A50000020674908600020664908606648674989
:104A600008606748674908604FF4C060664908609D
:104A70007FF4C060654908605FF0FF3064490860FA
:104A80000020644908605FF0D85063490860002046
:104A9000624908600020624908600020614908609E
:104AA00061486249086000206149086061486249C4
:104AB00008606248624908606249634A116063495C
:104AC000634A11600021634A11600021624A11604B
:104AD0006249634A11606349634A11600021634A75
:104AE00011606349634A1160634A11605FF4001109
:104AF000624A116062490860002062490860002033
:104B000061490860002061490860614861490860A6
:104B100000206149086000F00AF860480068C0079A
:104B200004D42248016851F08071016001BD5FF03A
:104B300001105B49086000205A49086003205A4967
:104B4000086041F27070594908605949086042F69E
:104B5000E0605849086058490860704773EDFC27C9
:104B600010040E4040040E4000040E4020040E408D
:104B700009F0370068040E4000003701013F0720AC
:104B800028040E4000080E4030040E401C040E4065
:104B9000D81C0020DC1C002014E000E018E000E03D
:104BA00010E000E0E41C0020E01C0020C01C0020FD
:104BB000841C00209003002070040E4010ED00E0E3
:104BC0000085011054120E40010000A550120E4045
:104BD000FF0123E4000C0E4000FEDC1B040C0E4021
:104BE000D5D755BF100C0E402A28AA40140C0E40F1
:104BF000200C0E40240C0E4000000188300C0E40AA
:104C0000D5010034340C0E40500C0E40540C0E40B4
:104C1000600C0E40640C0E40700C0E40800C0E4078
:104C2000840C0E408C0C0E40FF0101B4A00C0E4011
:104C3000A40C0E40E7FFBF01000E0E40180040001C
:104C4000040E0E4066F59F01100E0E40990A4000BA
:104C5000140E0E40200E0E40240E0E4000D0A10176
:104C6000300E0E4066251E00340E0E40500E0E40D3
:104C7000FFFFDF01540E0E40600E0E40640E0E402A
:104C8000700E0E40800E0E40840E0E408C0E0E40B4
:104C9000E6FF1F00A00E0E40A40E0E403C0E0E407C
:104CA00000C0084020C0084000C208400CC20840B4
:104CB00010C2084004C2084008C20840012210F097
:104CC0001F018A40974903005BB25B0941F823202A
:104CD0007047012210F01F018A40934903005BB224
:104CE0005B0941F823207047F8B500240025002017
:104CF0000100C9B2022910DA00218F4A0300DBB299
:104D0000D1540021894A0300DBB2D15400218B4ADF
:104D10000300DBB2D154401CEAE700210800C0B216
:104D200002281DDA864A0800C0B202EB4000407833
:104D3000002806D183480A00D2B250F8220004436A
:104D40000CE00800C0B202EB40004078802805D19A
:104D50007C480A00D2B250F822000543491CDDE726
:104D60007948046079480560794806687948076899
:104D70000A20FFF7AEFF0B20FFF7ABFF0A20FFF77B
:104D80009DFF0B20FFF79AFF0FF24D00724908605C
:104D90007248016851F0020101607148FCF726FA7F
:104DA000F1BD80B56C480068804701BD020010006D
:104DB000C0B202280EDA62481300DBB200EB4300F7
:104DC00040780B00DBB2984204D15E48D2B250F872
:104DD000220000E00020704700210800C0B2022835
:104DE0000BDA55480A00D2B2805C002803D00FF2DB
:104DF0000D00594A1060491CEFE770472DE9F84350
:104E0000554E5848306000273800C0B2022880F262
:104E10008780DFF82C9154483900C9B209EB410171
:104E2000497800EB8100040047483900C9B209EB1A
:104E30004101497800EB81000500DFF8FC80380073
:104E4000C0B218F80000002868D048483060192126
:104E500047483A00D2B200EB8200FCF725F900285F
:104E60005CD03800C0B219F81000002815D12068B5
:104E700034493A00D2B251F8221031EA0000002839
:104E800005D001202D493A00D2B2885418E0002004
:104E90002A493A00D2B2885412E0206829493A00DF
:104EA000D2B251F82210084205D0012023493A001D
:104EB000D2B2885404E0002020493A00D2B288548B
:104EC0001A481E493A00D2B28A5C3B00DBB2C35C8E
:104ED0009A4216D03A00D2B2895C3A00D2B28154DA
:104EE0003900C9B2405C01280BD1012010493A00B9
:104EF000D2B288541F4800680E493A00D2B241F835
:104F0000220000203900C9B208F8010029680D48C4
:104F10003A00D2B250F82200014329607F1C73E7A7
:104F2000BDE8F18300E100E080E200E06E1D0020BA
:104F3000721D0020081C00206C1D0020701D002028
:104F40009401002020600800400C0E40400E0E40EE
:104F50004C0C0E404C0E0E40781C0020C41C00204F
:104F600098010020D94D08003C0C0E40FD4D080072
:104F7000001C0020D81C00200000000000000004DD
:104F80000404040000040A0A0A000000000A0A1FC0
:104F90000A1F0A0A041E050E140F04031308040254
:104FA000191806090502050916060402000000008A
:104FB00008040202020408020408080804020004AB
:104FC000150E1504000004041F0404000000000076
:104FD0000604020000001F000000000000000006A0
:104FE00006001008040201000E11191513110E0419
:104FF00006040404040E0E11100804021F1F080406
:105000000810110E080C0A091F08081F010F1010C4
:10501000110E0C02010F11110E1F100804020202E2
:105020000E11110E11110E0E11111E1008060006A0
:105030000600060600000606000604020804020137
:1050400002040800001F001F0000020408100804EA
:10505000020E1110080400040E11101615150E0E84
:1050600011111F1111110F11110F11110F0E11013B
:105070000101110E070911111109071F01010F018B
:10508000011F1F01010F0101010E11011D11110E60
:105090001111111F1111110E04040404040E1C0837
:1050A0000808080906110905030509110101010194
:1050B00001011F111B1515111111111113151911D2
:1050C000110E11111111110E0F11110F0101010E0D
:1050D0001111111509160F11110F0509111E0101EA
:1050E0000E10100F1F0404040404041111111111F7
:1050F000110E11111111110A041111111115150EB2
:1051000011110A040A11111111110A0404041F10CB
:10511000080402011F0E02020202020E0001020434
:105120000810000E08080808080E040A1100000004
:10513000000000000000001F020408000000000042
:10514000000E101E111E01010F1111110F00000E93
:105150000101110E1010161911111E00000E111F61
:10516000010E0C120207020202001E11111E100E87
:1051700001010D131111110400060404040E0800AE
:105180000C080809060101090503050906040404C1
:1051900004040E00000B1515111100000D13111160
:1051A0001100000E1111110E00000F110F0101006E
:1051B0000016191E101000000D1301010100000E51
:1051C000010E100F0202070202120C000011111151
:1051D000191600001111110A040000111111150A0D
:1051E0000000110A040A11000011111E100E000027
:1051F0001F0804021F080404020404080404040431
:105200000404040204040804040212150900000046
:10521000001F1F1F1F1F1F1F012210F01F018A40A8
:10522000664903005BB25B0941F823207047012205
:1052300010F01F018A40624903005BB25B0941F82C
:105240002320704710B588B068465E492022FBF7DE
:105250006DFF00200100C9B208290BDA694602007F
:10526000D2B251F82210584A0300DBB242F82310A0
:10527000401CEFE700242000C0B21D2809DA2000FE
:1052800040B2FFF7C9FF200040B2FFF7D0FF641C17
:10529000F1E708B010BD80B50820FDF768FB0920D4
:1052A000FDF765FB0A20FDF762FB0B20FDF75FFBB6
:1052B0000420FDF75CFB0520FDF759FB0620FDF7F8
:1052C00056FB0720FDF753FB0120FDF750FB0220A2
:1052D000FDF74DFB0320FDF74AFB0020FDF71EFB09
:1052E000FEE73A480168491C01603948016831F01D
:1052F0008041016037490888401E088008880028DE
:1053000006D14FF47A70088033480168491C016067
:105310007047F8B53148066816F40034002C1ED0EA
:1053200000273800C0B2022819DA00213800C0B2C4
:10533000FFF73CFD05002C420FD0294801682943A6
:105340000160012027493A00D2B288541F48006802
:1053500025493A00D2B241F822007F1CE1E70A2039
:10536000FFF765FFF1BDF8B52048066816F00104A7
:10537000002C1ED000273800C0B2022819DA802184
:105380003800C0B2FFF712FD05002C420FD01848BC
:10539000016829430160012012493A00D2B28854C1
:1053A0000A48006810493A00D2B241F822007F1C36
:1053B000E1E70B20FFF73BFFF1BD000080E100E0DB
:1053C00080E200E0185E080000E400E0D81C002045
:1053D000C01C0020F0030020DC1C00204C0C0E4000
:1053E000440C0E406C1D0020001C00204C0E0E4092
:1053F000440E0E40E0B500F042F8012801D0002034
:1054000037E0FEF7BEFD002002900720019000204B
:1054100000903223002202210020FFF7DBF8002059
:1054200002900720019000200090322300221521D5
:105430001320FFF7CFF841494148FEF773FDFEF70F
:1054400092FD00F062F800203E49086000203E49CD
:1054500008600020374908700020374908700FF2B3
:10546000CD00334908603948016851F0800101607E
:1054700001200EBD80B52E480068804701BD1CB5D7
:1054800000240020FEF796FD6846FEF763FDBDF898
:105490000000C00703D42E48FBF7A8FE03E02D4808
:1054A000FBF7A4FE641CBDF80000C0F3C600202872
:1054B00000D0641CBDF80000C0F38020002804D197
:1054C0002548FBF793FE641C02E02448FBF78EFEA0
:1054D000BDF8000080B2C00A80B2082800D0641C69
:1054E0001F48FBF783FEBDF80400FBF79FFEFBF7A8
:1054F0008FFEBDF80400B0F5886F00D0641C002C4E
:1055000001D1012000E0002016BD164804214170A1
:1055100014210171052141710021C1701421817094
:105520000121017003218171704700007047000064
:105530007C1C00207A1D00207B1D0020C95608001D
:10554000553A0800DC1B0020801C0020C41C0020F1
:10555000D45F08009C5F0800345F0800705C08009E
:10556000F05F0800D01B0020FFFFFFFFFFFF03FFDD
:10557000FFFFFFFFFF03FFFFFFFFFFFF03FFFFFF33
:10558000FFFFFF03FFFFFFFFFFFF03FFFFFFFFFF23
:10559000FF03FFFFFFFFFFFF03FFFFFFFFF0FF031E
:1055A000FFFFFF7FE0FF03FF0F0000C6FF03FF0FB9
:1055B0000000CFFF03FF0F0000CFFF03FF0F00002D
:1055C000C6FF03FF0FFF7FE0FF03FF0FFFFFF0FFAA
:1055D00003FF0FFFFFFFFF03FF0FFFFFFFFF03FFAF
:1055E0000FFFFFFFFF03FF0FFFFFFFFF03FF0FFF93
:1055F000FFFFFF03FF0FFFFFF0FF03FF0FFF7FE041
:10560000FF03FF0F0000C6FF03FF0F0000CFFF03E3
:10561000FF0F0000CFFF03FF0F0000C6FF03FF0FC7
:10562000FF7FE0FF03FF0FFFFFF0FF03FF0FFFFF10
:10563000FFFF03FF0FFFFFFFFF03FF0FFFFFFFFF52
:1056400003FF0FFFFFFFFF03FF0FFFFFFFFF03FF3E
:105650000FFFFFFFFF03FF0FFFFFF0FF03FF0FFF31
:105660007FE0FF03FF0F0000C6FF03FF0F0000CF26
:10567000FF03FF0F0000CFFF03FF0F0000C6FF0373
:10568000FFFFFF7FE0FF03FFFFFFFFF0FF03FFFFD0
:10569000FFFFFFFF03FFFFFFFFFFFF03FFFFFFFF12
:1056A000FFFF03FFFFFFFFFFFF03FFFFFFFFFFFF02
:1056B00003FFFFFFFFFFFF03FFFFFFFFFFFF03FFEE
:1056C000FFFFFFFFFF0300002DE9F041002400254C
:1056D0002646FEF754FF4A480078B8B149494A784F
:1056E0000B78C0273B4202BF012303FA02F21543A5
:1056F00009D08B78934206DB012797403E43521C2A
:10570000D2B29342F8DA0831401EE8D100213E4877
:105710000023012202FA01F73E4249D0202930D26B
:1057200050F824303B4340F824304F1C01F1010C69
:10573000BCF1200F3EBF02FA07F73B4340F824308C
:105740000AD300EB8403D3F808C007F01F0702FA5E
:1057500007F747EA0C079F608F1C8B1C202B06D293
:1057600050F82430BA401A4340F824201EE000EBE1
:105770008403D3F808C007F01F07BA4042EA0C02BE
:1057800013E000EB840301F01F0C9F6802FA0CFE8B
:105790000CF1010802FA08F848EA0E0E0CF1020CAE
:1057A00002FA0CF242EA0E023A439A60891C12E0B5
:1057B0003D4211D020293EBF50F824203A4340F802
:1057C000242008D300EB84039F6801F01F0C02FA29
:1057D0000CF23A439A600123002C0CBF1C460024B3
:1057E000491CC9B2202993DB084902680A60426853
:1057F0004A6082688A60C068C860BDE8F08100BF06
:105800008C1B0020F8150020B01B0020C01B0020BE
:10581000FF03FF0303030303030303030303030360
:105820000303030303030303FF03FF0330003000FC
:1058300030003000300030003000300030003000E8
:105840003000300030003000FF03FF03000300038E
:1058500000030003FF03FF03030003000300030032
:10586000FF03FF03FF03FF03000300030003000324
:10587000FC03FC030003000300030003FF03FF031A
:1058800003000300C300C300C300C300FF03FF0302
:10589000C000C000C000C000C000C000FF03FF0384
:1058A0000300030003000300FF03FF0300030003E2
:1058B00000030003FF03FF030300030003000300D2
:1058C00003000300FF03FF030303030303030303B6
:1058D000FF03FF03FF03FF030003000300030003B4
:1058E00000030003000300030003000300030003A0
:1058F000FF03FF030303030303030303FF03FF0388
:105900000303030303030303FF03FF03FF03FF0377
:105910000303030303030303FF03FF030003000365
:1059200000030003000300037FB5040000263000DD
:10593000C0B203281EDA002005002800C0B20328E8
:1059400016DA207880B23100C9B211EBC001891C8F
:10595000ADF80010607880B22900C9B211EBC00127
:10596000891CADF802106846FDF7DEF96D1CE4E70E
:10597000761CDCE72348D0E90023CDE90123207819
:10598000C000801CADF804006078C000801CADF839
:10599000060001A8FDF7BBFC7FBD80B50FF2150026
:1059A00019490860FDF70BFB01BD80B5164800687A
:1059B000804701BD7CB54FF4FA70144C2168226811
:1059C000B2FBF0F200FB1210002816D1104D28781F
:1059D000082812DA0F4E307808280EDA28788DF869
:1059E000000030788DF801006846FFF79DFF3078A1
:1059F000401C30702878401C28702068401C2060B3
:105A000073BD000028600800581D00205C1D0020A8
:105A1000871D0020881D002010B52A4C206850F0FA
:105A200000402060FFF700F8FEF784FFFFF703F85F
:105A3000FFF708FCFEF7B3FFFCF79FFCFCF7F3FD54
:105A4000FBF790FCFCF745F8FDF79CFDFDF7FBFA32
:105A5000FCF7CCFFFFF748F9FFF7CCFCFAF72BFD7A
:105A6000FFF79BFF00F038F800F044F8FBF73CFC30
:105A7000206820F000402060134814490860FDF7BA
:105A80000FF8FFF78EF9FCF718FEFCF76CF8FDF73E
:105A9000E1FDFFF7EFFCFCF7ACFCFBF7B9FCFDF711
:105AA0007FFBFAF7E7FDFFF780FF00F01AF800F040
:105AB00026F85FF0004406480460FEF781FF0548C1
:105AC0000460D9E7C01C0020010000A550120E4060
:105AD000300C0E40340C0E400FF2150003490860E4
